:10000000FDC0000021C100001FC100001DC1000093
:100010001BC1000019C1000017C1000015C100007C
:1000200013C1000011C100000FC100000DC100008C
:100030000BC1000009C1000007C1000005C100009C
:1000400003C1000001C10000FFC00000FDC00000AE
:10005000FBC00000F9C00000F7C00000F5C00000C0
:10006000F3C00000F1C00000EFC00000EDC00000D0
:10007000EBC00000E9C00000E7C00000E5C00000E0
:10008000E3C00000E1C00000DFC00000DDC00000F0
:10009000DBC00000D9C00000D7C00000D5C0000000
:1000A000D3C00000D1C00000CFC00000CDC0000010
:1000B000CBC00000C9C00000C7C00000C5C0000020
:1000C000C3C00000C1C00000BFC00000BDC0000030
:1000D000BBC00000B9C00000B7C00000B5C0000040
:1000E000B3C00000B1C00000AFC00000ADC0000050
:1000F000ABC00000A9C00000A7C00000A5C0000060
:10010000A3C00000A1C000009FC000009DC000006F
:100110009BC0000099C0000097C0000095C000007F
:1001200093C0000091C000008FC000008DC000008F
:100130008BC0000089C0000087C0000085C000009F
:1001400083C0000081C000007FC000007DC00000AF
:100150007BC0000079C0000077C0000075C00000BF
:1001600073C0000071C000006FC000006DC00000CF
:100170006BC0000069C0000067C0000065C00000DF
:1001800063C0000061C000005FC000005DC00000EF
:100190005BC0000059C0000057C0000055C00000FF
:1001A00053C0000051C000004FC000004DC000000F
:1001B0004BC0000049C0000047C0000045C000001F
:1001C00043C0000041C000003FC000003DC000002F
:1001D0003BC0000039C0000037C0000035C000003F
:1001E00033C0000031C000002FC000002DC000004F
:1001F0002BC0000029C0000027C0000011241FBE32
:10020000CFEFCDBFDFE3DEBF00E00CBF18BE19BEED
:100210001ABE1BBE11E2A0E0B0E2E4E4F6E300E0A7
:100220000BBF02C007900D92A832B107D9F71BBED1
:1002300021E2A8E2B1E201C01D92A439B207E1F7C0
:100240000E9432100C94201BDBCECF93DF931F92C1
:10025000CDB7DEB78091302190913121E0912C21F2
:10026000F0912D21BE016F5F7F4F19958981082E76
:10027000000C990B0F90DF91CF910895FC019181B3
:1002800095FFFDCF608380E090E00895FC019181AF
:100290009923ECF7808108954F925F926F927F923D
:1002A0008F929F92AF92BF92EF92FF920F931F9304
:1002B000CF937C014A015B0128013901FC01848153
:1002C00082FF16C0D901C801689412F8B695A795A7
:1002D000979587951694D1F7B901A801032E36E1B9
:1002E00076956795579547953A95D1F7302D15C076
:1002F000D901C801689413F8B695A7959795879585
:100300001694D1F7B901A801032E37E176956795C8
:10031000579547953A95D1F7302D88159905AA0537
:10032000BB0508F4A6C084169506A606B70608F411
:10033000A2C0F701848182FD04C0880C991CAA1C0C
:10034000BB1CC301B201A50194010E944F152F3FB0
:1003500031054105510508F490C08FEF90E0A0E011
:10036000B0E0C9EF05C0281739074A075B0758F006
:10037000880F991FAA1FBB1FCD3F0CF48160CF5F70
:10038000C73089F74FC0CC230CF04CC0D501C40155
:10039000880F991FAA1FBB1F880F991FAA1FBB1F79
:1003A000880F991FAA1FBB1F481A590A6A0A7B0A9D
:1003B000CE3FF4F48DEF9FEF8C1B9109C7FD939511
:1003C00004C0440C551C661C771C8A95D2F7D501D5
:1003D000C401B695A79597958795BC01CD01640D8D
:1003E000751D861D971DA50194010E944F1537C0EC
:1003F00083E08C0FA501940104C0220F331F441F1A
:10040000551F8A95D2F7DA01C901B695A795979538
:100410008795BC01CD01640D751D861D971D0E9439
:100420004F151DC083E08C0FA501940104C0220F5D
:10043000331F441F551F8A95D2F7DA01C901B695BB
:10044000A79597958795BC01CD01640D751D861DF7
:10045000971D0E944F152150310941095109832FE1
:100460008F70C295C07FC82BF701C783268381E0B8
:1004700018C080E016C080E014C0D501C401880F08
:10048000991FAA1FBB1F880F991FAA1FBB1F880F88
:10049000991FAA1FBB1F481A590A6A0A7B0AC9EF8B
:1004A00089CFCF911F910F91FF90EF90BF90AF90A8
:1004B0009F908F907F906F905F904F9008950F93D3
:1004C0001F93CF93DF93EC018B01009709F45DC17B
:1004D000803C910529F460E180E00E94010F55C144
:1004E000C03484E0D80729F468E080E00E94010F5E
:1004F0004CC1C115E4E0DE0729F464E080E00E940D
:10050000010F43C1C038F1E0DF0729F462E080E069
:100510000E94010F3AC1C11581E0D80729F461E0BA
:1005200080E00E94010F31C1C038E3E0DE0729F40A
:1005300061E081E00E94010F28C1C039F3E0DF07CC
:1005400029F461E082E00E94010F1FC1C11582E021
:10055000D80729F462E081E00E94010F16C1C0347F
:10056000E2E0DE0729F462E082E00E94010F0DC1A3
:10057000C115F3E0DF0729F464E081E00E94010F78
:1005800004C1C03283E0D80729F464E082E00E940D
:10059000010FFBC0C115E8E0DE0729F461E083E04C
:1005A0000E94010FF2C0C115F9E0DF0729F461E0F4
:1005B00084E00E94010FE9C0C1158AE0D80729F440
:1005C00061E085E00E94010FE0C0C115EBE0DE07AD
:1005D00029F461E086E00E94010FD7C0C034F8E042
:1005E000DF0729F462E083E00E94010FCEC0C0342F
:1005F00089E0D80729F462E084E00E94010FC5C0B9
:10060000C034EAE0DE0729F462E085E00E94010FD1
:10061000BCC0C034FBE0DF0729F462E086E00E9442
:10062000010FB3C0C03988E0D80729F464E083E043
:100630000E94010FAAC0C039E9E0DE0729F464E096
:1006400084E00E94010FA1C0C039FAE0DF0729F45D
:1006500064E085E00E94010F98C0C0398BE0D807A4
:1006600029F464E086E00E94010F8FC0C03CE8E0FE
:10067000DE0729F468E083E00E94010F86C0C03CD9
:10068000F9E0DF0729F468E084E00E94010F7DC0F3
:10069000C03C8AE0D80729F468E085E00E94010F99
:1006A00074C0C03CEBE0DE0729F468E086E00E94FD
:1006B000010F6BC0C03AF8E0DF0729F460E183E086
:1006C0000E94010F62C0C03A89E0D80729F460E1B6
:1006D00084E00E94010F59C0C03AEAE0DE0729F425
:1006E00060E185E00E94010F50C0C03AFBE0DF07E7
:1006F00029F460E186E00E94010F47C0C03B88E01A
:10070000D80729F460E283E00E94010F3EC0C03B9D
:10071000E9E0DE0729F460E284E00E94010F35C0C1
:10072000C03BFAE0DF0729F460E285E00E94010F98
:100730002CC0C03B8BE0D80729F460E286E00E9421
:10074000010F23C0C038E4E0DE0729F460E483E051
:100750000E94010F1AC0C039F4E0DF0729F460E4F9
:1007600084E00E94010F11C0C03A84E0D80729F448
:1007700060E485E00E94010F08C0C03BE4E0DE07B2
:1007800021F460E486E00E94010F8D818F738D83D8
:10079000F80195818481892B9681911198E0892BAC
:1007A0008D83F801408151816281738100E018E4FA
:1007B00028EE31E0CE0170DD9C8198609C839C81A5
:1007C00090619C83DF91CF911F910F91089504C098
:1007D00061507109810991096115710581059105C2
:1007E000B9F708950F931F93CF93DF938C0163D4D0
:1007F000C82FD0E0DC2FCC27C8015DD49E01282B68
:10080000C901DF91CF911F910F910895CF92DF928F
:10081000EF92FF92CF93DF93EC014DD4C82ED12CF1
:10082000E12CF12C7601DD24CC24CE0144D4D82A4D
:10083000CE0141D4A7019601282BCA01B901DF914D
:10084000CF91FF90EF90DF90CF900895FC0120832F
:1008500041835283638315860895CF93DF93EC0120
:10086000888137D46EE189819A812DD46BE278E654
:1008700080E090E0ACDF888140D466ED74E180E0F8
:1008800090E0A5DFDF91CF910895CF93DF93EC0146
:10089000E4DF88811ED462EA89819A8114D4898137
:1008A0009A81A0DF8E879F87888127D4888111D481
:1008B00064EA89819A8107D489819A8193DF888B40
:1008C000998B88811AD4888104D466EA89819A81B7
:1008D000FAD389819A8186DF8A8B9B8B88810DD49C
:1008E0008881F7D368EA89819A81EDD389819A81D9
:1008F00079DF8C8B9D8B888100D48881EAD36AEA6A
:1009000089819A81E0D389819A816CDF8E8B9F8B5C
:100910008881F3D38881DDD36CEA89819A81D3D32E
:1009200089819A815FDF888F998F8881E6D3DF91F3
:10093000CF910895823029F128F4882341F0813045
:1009400099F046C0833051F18430A9F141C088E468
:10095000FB01808388E5FA01808380E593E2F90159
:100960008083918380E0089586E4FB01808386E59F
:10097000FA0180838CEB91E1F9018083918380E01F
:10098000089584E4FB01808384E5FA01808388EE86
:1009900098E0F9018083918380E0089582E4FB016F
:1009A000808382E5FA01808382E994E0F901808303
:1009B000918380E0089580E4FB01808380E5FA0163
:1009C000808388E592E0F9018083918380E0089537
:1009D00081E008952F923F924F925F926F927F92A3
:1009E0008F929F92AF92BF92CF92DF92EF92FF923F
:1009F0000F931F93CF93DF93CDB7DEB7E597CDBFAE
:100A0000DEBF4C0181E0D4011C968C931C979E01A3
:100A10002F5F3F4FAE014C5F5F4FBE016D5F7F4F59
:100A20001D968C9187DF882319F0F40114862DC35D
:100A3000D4018C914ED36B81F4018181928143D397
:100A4000D4018C915AD349815A8141155105D1F174
:100A5000A12C0F2EF8E4BF2EF02D0F2EF8EECF2E86
:100A6000F02DDD24D394E12CF12C00E010E0242FB4
:100A7000352F40E050E060E070E080E090E00E94C0
:100A800097150F2EF6E0AF2EF02DB12CC12CD12CE6
:100A90000E94EA15215C3D4B404F5F4F6F4F7F4FE7
:100AA0008F4F9F4F0E944D1420E034E244E759E4F9
:100AB0000E943D130E94AA13622F732F842F952F3B
:100AC00086DE05C066E070E080E090E080DEF40144
:100AD0008081FFD260E0D40111968D919C91129794
:100AE000F2D2F4018181928191DE6CA77DA78EA75D
:100AF0009FA7D4018C9101D3F4018081EAD26C814B
:100B0000D40111968D919C911297DDD2F4018081D0
:100B1000F4D249815A8141155105D1F1A12C0F2EF2
:100B2000F8E4BF2EF02D0F2EF8EECF2EF02DDD24A1
:100B3000D394E12CF12C00E010E0242F352F40E07D
:100B400050E060E070E080E090E00E9497150F2E8A
:100B5000F6E0AF2EF02DB12CC12CD12C0E94EA155D
:100B6000215C3D4B404F5F4F6F4F7F4F8F4F9F4FEB
:100B70000E944D1420E034E244E759E40E943D1302
:100B80000E94AA13622F732F842F952F20DE05C099
:100B900066E070E080E090E01ADED4018C9199D29A
:100BA00060E0F401818192818ED2D40111968D9101
:100BB0009C9112972BDE6B017C01F40180819DD208
:100BC000D40156964D915C915797242F352F40E0D4
:100BD00050E060E070E080E090E008E00E9446169F
:100BE0002D833E834F83588769877A878B879C87BD
:100BF000970186018D819E81AF81B885081B190BF5
:100C00002A0B3B0B0D831E832F833887330F000B7A
:100C1000102F9801098B1A8B2B8B3C8BD401589683
:100C20004D915C915997AD80BE80CF80D884E98882
:100C3000FE2C0E2D1E2D242F352F40E050E060E0BD
:100C400070E080E090E00E94971507E10E945F1637
:100C5000822F932FA42FB52F8D879E87AF87B88BB8
:100C60008C019D010053184F2F4F3F4F0D8B1E8B52
:100C70002F8B388F003D1740210531050CF087C0C0
:100C8000FE2C0E2D1E2D2A2D3B2D4C2D5D2D602F63
:100C9000702F802F9E2D0E949715C22ED32EE42EEA
:100CA000F52E062F172FA82EB92EA0E00E948F1622
:100CB00084F421503109410950486F4F7F4F8F4FC5
:100CC0009F4FC22ED32EE42EF52E062F172FA82EBF
:100CD000B92E2C2D3D2D4E2D5F2D602F712F8A2D7D
:100CE0009B2D0FE10E945F16298F3A8F4B8F5C8FEF
:100CF0004D845E846F847888770C4408542C3201CC
:100D00002D853E854F855889642D742D842D942D15
:100D100002E00E944616A22EB32EC42ED52EE62E39
:100D2000F72EE82F192F04E00E9446160E2F0E947E
:100D30008616AD84BE84CF84D888E42CF42C042D90
:100D4000142D0E947D160E94971504E00E945F16E4
:100D50002D8F3E8F4F8F58A369A37AA38BA3292E83
:100D60002A2D3B2D4C2D5D2D642D742D842D942D1D
:100D700001E00E944616042D0E9497152D873CA382
:100D80004DA35EA36FA378A789A79AA714C01D8659
:100D90001CA21DA21EA21FA218A619A61AA61D8E6D
:100DA0001E8E1F8E18A219A21AA21BA2212C198E08
:100DB0001A8E1B8E1C8E8D899E89AF89B88D8432C8
:100DC000EAEF9E07EFEFAE07BE070CF05DC02D897E
:100DD0003E894F89588D6C017D01FF0CCC08DC2CBD
:100DE00076016C2D7C2D8C2D9C2D24523A4F4F4F2B
:100DF0005F4F6F4F7F4F8F4F9F4F322E432E542E9A
:100E0000652E762EB72FA82FF92F04E00E944616E4
:100E1000A32CB42CC52CD62CE72CFB2E0A2F1F2F6D
:100E20000E948616E2E02E27AD8CBE8CCF8CD8A017
:100E3000E9A0FAA00BA1122D0E947D162D8F3E8FE6
:100E40004F8F58A369A37AA38BA3292E232D342D6A
:100E5000452D562D672D7B2F8A2F9F2F03E00E9453
:100E600046162E27AD84BCA0CDA0DEA0EFA0F8A42E
:100E700009A51AA50E947D162D873CA34DA35EA34C
:100E80006FA378A789A79AA7D40113968C9113977B
:100E90008150823018F01C961C92F7C0F4014489EE
:100EA0005589AD80BE80CF80D884E988FE2C0E2D78
:100EB0001E2D242F352F40E050E060E070E080E0F0
:100EC00090E00E94971506E00E945F16422E532E76
:100ED000642E752EB62FA72F382E9BA7F401A0885D
:100EE000B1882A2D3B2D40E050E060E070E080E0CA
:100EF00090E001E10E944616A22EB32EC42ED52EFC
:100F0000E62EF72E082F192F242D352D462D572D7F
:100F10006B2F7A2F832D9BA50E947D16322E3BA727
:100F200048AB59AB6AAB7BAB8CAB9DAB4289538969
:100F3000AD80BE80CF80D884E988FE2C0E2D1E2D7A
:100F4000242F352F40E050E060E070E080E090E03A
:100F50000E94971507E00E945F16422E532E642EC2
:100F6000752EB62FA72F8D83998BF401A684B78495
:100F70002A2D3B2D40E050E060E070E080E090E002
:100F800000E10E944616A22EB32EC42ED52EE62EC8
:100F9000F72E082F192F242D352D462D572D6B2F69
:100FA0007A2F8D8199890E947D16AD84BCA0CDA039
:100FB000DEA0EFA0F8A409A51AA50E948616CCA46D
:100FC000DDA4EEA4FFA456016701E12CF12C8701FA
:100FD000AD82BE82CF82D886E986FA860B871C87CF
:100FE000E12CF12C00E010E00E94971505E10E9431
:100FF0005F16422E532E642E752EB62FA72FF82F74
:10100000E92F232D3BA548A959A96AA97BA98CA939
:101010009DA9AD8CBE8CCF8CD8A0E9A0FAA00BA165
:10102000122D0E948616A22EB32EC42ED52EE62E89
:10103000F72E082F192F242D352D462D572D6B2FC8
:101040007A2F8F2F9E2F0E9486160FE00E945F1628
:10105000D40114962C93149715963C9315971696D5
:101060004C93169717965C938D899E89AF89B88D9E
:10107000A98CBA8CCB8CDC8C8A199B09AC09BD0974
:10108000F40180879187A287B387E596CDBFDEBF45
:10109000DF91CF911F910F91FF90EF90DF90CF9054
:1010A000BF90AF909F908F907F906F905F904F9088
:1010B0003F902F900895FC018EEF838392819923B6
:1010C000ECF783810895FC01638392819923ECF707
:1010D0000895E82FE695E695E69540E2E49FF00155
:1010E0001124FA5F877021E030E0A90102C0440FAB
:1010F000551F8A95E2F746830895E82FE695E69511
:10110000E69540E2E49FF0011124FA5F877021E048
:1011100030E0A90102C0440F551F8A95E2F74583CC
:101120000895E82FE695E695E69590E2E99FF001AF
:101130001124FA5F982F977021E030E002C0220F4F
:10114000331F9A95E2F72183D8CF08950F931F9309
:10115000CF93DF93EC018B01009709F436C1803CFB
:10116000910521F460E180E04CD62FC1C03484E0C9
:10117000D80721F468E080E044D627C1C115E4E037
:10118000DE0721F464E080E03CD61FC1C038F1E006
:10119000DF0721F462E080E034D617C1C11581E099
:1011A000D80721F461E080E02CD60FC1C038E3E01D
:1011B000DE0721F461E081E024D607C1C039F3E005
:1011C000DF0721F461E082E01CD6FFC0C11582E098
:1011D000D80721F462E081E014D6F7C0C034E2E021
:1011E000DE0721F462E082E00CD6EFC0C115F3E027
:1011F000DF0721F464E081E004D6E7C0C03283E079
:10120000D80721F464E082E0FCD5DFC0C115E8E036
:10121000DE0721F461E083E0F4D5D7C0C115F9E021
:10122000DF0721F461E084E0ECD5CFC0C1158AE08E
:10123000D80721F461E085E0E4D5C7C0C115EBE033
:10124000DE0721F461E086E0DCD5BFC0C034F8E001
:10125000DF0721F462E083E0D4D5B7C0C03489E071
:10126000D80721F462E084E0CCD5AFC0C034EAE016
:10127000DE0721F462E085E0C4D5A7C0C034FBE0FE
:10128000DF0721F462E086E0BCD59FC0C03988E06A
:10129000D80721F464E083E0B4D597C0C039E9E011
:1012A000DE0721F464E084E0ACD58FC0C039FAE0F9
:1012B000DF0721F464E085E0A4D587C0C0398BE066
:1012C000D80721F464E086E09CD57FC0C03CE8E00C
:1012D000DE0721F468E083E094D577C0C03CF9E0F4
:1012E000DF0721F468E084E08CD56FC0C03C8AE061
:1012F000D80721F468E085E084D567C0C03CEBE006
:10130000DE0721F468E086E07CD55FC0C03AF8E0F3
:10131000DF0721F460E183E074D557C0C03A89E06B
:10132000D80721F460E184E06CD54FC0C03AEAE010
:10133000DE0721F460E185E064D547C0C03AFBE0F8
:10134000DF0721F460E186E05CD53FC0C03B88E068
:10135000D80721F460E283E054D537C0C03BE9E010
:10136000DE0721F460E284E04CD52FC0C03BFAE0F8
:10137000DF0721F460E285E044D527C0C03B8BE065
:10138000D80721F460E286E03CD51FC0C038E4E015
:10139000DE0721F460E483E034D517C0C039F4E0FF
:1013A000DF0721F460E484E02CD50FC0C03A84E06C
:1013B000D80721F460E485E024D507C0C03BE4E011
:1013C000DE0719F460E486E01CD5F8018181806BAA
:1013D000818381818F7B81838481806B84838085FD
:1013E0008F7B808780ED8883DF91CF911F910F9154
:1013F00008950F931F93CF93DF93EC01062F142FC3
:10140000009709F436C1803C910521F460E180E049
:10141000F8D42FC1C03484E0D80721F468E080E01C
:10142000F0D427C1C11584E0D80721F464E080E03E
:10143000E8D41FC1C03881E0D80721F462E080E021
:10144000E0D417C1C11581E0D80721F461E080E044
:10145000D8D40FC1C03883E0D80721F461E081E01F
:10146000D0D407C1C03983E0D80721F461E082E01D
:10147000C8D4FFC0C11582E0D80721F462E081E042
:10148000C0D4F7C0C03482E0D80721F462E082E023
:10149000B8D4EFC0C11583E0D80721F464E081E03F
:1014A000B0D4E7C0C03283E0D80721F464E082E022
:1014B000A8D4DFC0C11588E0D80721F461E083E03B
:1014C000A0D4D7C0C11589E0D80721F461E084E039
:1014D00098D4CFC0C1158AE0D80721F461E085E037
:1014E00090D4C7C0C1158BE0D80721F461E086E035
:1014F00088D4BFC0C03488E0D80721F462E083E01C
:1015000080D4B7C0C03489E0D80721F462E084E019
:1015100078D4AFC0C0348AE0D80721F462E085E017
:1015200070D4A7C0C0348BE0D80721F462E086E015
:1015300068D49FC0C03988E0D80721F464E083E014
:1015400060D497C0C03989E0D80721F464E084E012
:1015500058D48FC0C0398AE0D80721F464E085E010
:1015600050D487C0C0398BE0D80721F464E086E00E
:1015700048D47FC0C03C88E0D80721F468E083E00D
:1015800040D477C0C03C89E0D80721F468E084E00B
:1015900038D46FC0C03C8AE0D80721F468E085E009
:1015A00030D467C0C03C8BE0D80721F468E086E007
:1015B00028D45FC0C03A88E0D80721F460E183E016
:1015C00020D457C0C03A89E0D80721F460E184E014
:1015D00018D44FC0C03A8AE0D80721F460E185E012
:1015E00010D447C0C03A8BE0D80721F460E186E010
:1015F00008D43FC0C03B88E0D80721F460E283E014
:1016000000D437C0C03B89E0D80721F460E284E011
:10161000F8D32FC0C03B8AE0D80721F460E285E010
:10162000F0D327C0C03B8BE0D80721F460E286E00E
:10163000E8D31FC0C03884E0D80721F460E483E019
:10164000E0D317C0C03984E0D80721F460E484E017
:10165000D8D30FC0C03A84E0D80721F460E485E015
:10166000D0D307C0C03B84E0D80719F460E486E01B
:10167000C8D364E0802FC5D387E0888380E1189FBA
:10168000A001112443604983DF91CF911F910F91F5
:101690000895CF92DF92EF92FF920F931F93CF9313
:1016A000DF93EC01CB01BA016801790120E030E061
:1016B00040E854E40E94EC149B01AC0160E074E249
:1016C00084EF9BE4DAD720E030E040E85FE370D7B6
:1016D0000E94E4136EA37FA36EA17FA180E090E03F
:1016E0000E941014A70196010E94EC140E94E413BA
:1016F00068A779A788A599A58AA79BA788A599A572
:101700008CA79DA788A599A58EA79FA7DF91CF91AC
:101710001F910F91FF90EF90DF90CF900895CF939E
:10172000DF93EB010E9446018883DF91CF910895FA
:101730000C943E010895CF92DF92EF92FF920F93A7
:101740001F93CF93DF93CDB7DEB72797CDBFDEBF13
:101750008C01F22E842F8770CC24C394D12CB60137
:1017600002C0660F771F8A95E2F746954695469523
:1017700020E2429FC001112441E050E09A5FE5D28F
:101780008F2D8770B60102C0660F771F8A95E2F72A
:10179000F694F694F69420E2F29EC001112440E003
:1017A00050E09A5FD2D20115110509F4D3C1003C73
:1017B000110521F460E180E024D3CCC1003484E041
:1017C000180721F468E080E01CD3C4C1011524E0AF
:1017D000120721F464E080E014D3BCC1003881E03A
:1017E000180721F462E080E00CD3B4C1011521E0B8
:1017F000120721F461E080E004D3ACC1003883E03B
:10180000180721F461E081E0FCD2A4C1003923E093
:10181000120721F461E082E0F4D29CC1011582E05C
:10182000180721F462E081E0ECD294C1003422E098
:10183000120721F462E082E0E4D28CC1011583E05A
:10184000180721F464E081E0DCD284C1003223E097
:10185000120721F464E082E0D4D27CC1011588E053
:10186000180721F461E083E0CCD274C1011529E0AE
:10187000120721F461E084E0C4D26CC101158AE052
:10188000180721F461E085E0BCD264C101152BE0AA
:10189000120721F461E086E0B4D25CC1003488E034
:1018A000180721F462E083E0ACD254C1003429E08F
:1018B000120721F462E084E0A4D24CC100348AE033
:1018C000180721F462E085E09CD244C100342BE08B
:1018D000120721F462E086E094D23CC1003988E02E
:1018E000180721F464E083E08CD234C1003929E088
:1018F000120721F464E084E084D22CC100398AE02C
:10190000180721F464E085E07CD224C100392BE083
:10191000120721F464E086E074D21CC1003C88E028
:10192000180721F468E083E06CD214C1003C29E080
:10193000120721F468E084E064D20CC1003C8AE024
:10194000180721F468E085E05CD204C1003C2BE07C
:10195000120721F468E086E054D2FCC0003A88E027
:10196000180731F560E183E04CD280EA98E080937B
:1019700030219093312188E99BE080932E21909330
:101980002F218FE89BE080932C2190932D21E6E07E
:10199000F0E284818D8385818E8386818F8380812F
:1019A0009181A281B38189839A83AB83BC837DC0FB
:1019B000003A29E0120721F460E184E022D2CAC093
:1019C000003A8AE0180721F460E185E01AD2C2C02B
:1019D000003A2BE0120721F460E186E012D2BAC08F
:1019E000003B88E0180721F460E283E00AD2B2C02D
:1019F000003B29E0120721F460E284E002D2AAC091
:101A0000003B8AE0180721F460E285E0FAD1A2C029
:101A1000003B2BE0120721F460E286E0F2D19AC08D
:101A2000003884E0180721F460E483E0EAD192C032
:101A3000003924E0120721F460E484E0E2D18AC096
:101A4000003A84E0180721F460E485E0DAD182C02E
:101A5000003B24E0120721F460E486E0D2D17AC092
:101A6000009330211093312188E99BE080932E214F
:101A700090932F218FE89BE080932C2190932D2130
:101A8000E6E0F0E284818D8385818E8386818F8379
:101A900080819181A281B38189839A83AB83BC8346
:101AA0007801003A88E0180751F460E183E0A9D199
:101AB0000F2EF0EAEF2EF8E0FF2EF02D12C020EBF3
:101AC000E21628E0F20621F460E283E09AD112C027
:101AD00080EAE81689E0F80621F460E184E091D11B
:101AE00012C020EBE21629E0F20621F460E284E065
:101AF00088D112C080EAE8168AE0F80621F460E195
:101B000085E07FD112C020EBE2162AE0F20621F434
:101B100060E285E076D111C080EAE8168BE0F80635
:101B200021F460E186E06DD108C020EBE2162BE0E5
:101B3000F20619F460E286E064D1BE016F5F7F4F68
:101B4000C8010E945F0265E271E083E99EE00E94A5
:101B5000AA1622C0009330211093312188E99BE01E
:101B600080932E2190932F218FE89BE080932C214E
:101B700090932D21E6E0F0E284818D8385818E8330
:101B800086818F8380819181A281B38189839A83A9
:101B9000AB83BC83780193CF2796CDBFDEBFDF91A7
:101BA000CF911F910F91FF90EF90DF90CF9008950C
:101BB0000F931F930DEC1BE821E030E0A901980181
:101BC000261B370B480B590BA4E6B0E0A6D72AD644
:101BD00029EA36E440E451E450D5F1D51F910F9144
:101BE0000895CF92DF92EF92FF92CF93DF93FC01A3
:101BF0004115510509F43FC080E090E020E0880FD6
:101C0000991F880F991FDB01A80FB91FCD90DD9098
:101C1000ED90FC90A281B381AA0FBB1FAA0FBB1F3E
:101C200086819781A80FB91FCD92DD92ED92FC922B
:101C3000139782819381019682839383A081B181DE
:101C40008A179B0711F41282138282819381C481C7
:101C5000D5818C179D0749F40196A817B90719F08B
:101C60008483958302C0148215822F5F822F90E0B7
:101C70008417950720F2DF91CF91FF90EF90DF90CE
:101C8000CF900895FC01128213821482158266831C
:101C90007783408351830895FC018281938144813D
:101CA00055818417950718F0841B950B08952081A2
:101CB0003181820F931F841B950B0895DC011296CE
:101CC000ED91FC911397CB010196E817F90798F075
:101CD000E150F04CE61BF70BEE0FFF1FEE0FFF1F5E
:101CE00016968D919C911797E80FF91F608171816D
:101CF0008281938108952D913C911197E20FF31FFA
:101D0000E150F04CE61BF70BEE0FFF1FEE0FFF1F2D
:101D100016968D919C911797E80FF91F608171813C
:101D2000828193810895682F809130219091312193
:101D3000E0912E21F0912F21199599231CF081E03B
:101D400090E008958FEF9FEF0895CF93DF93FC010C
:101D500020E030E0C62FD0E0DE01022E02C0B595B3
:101D6000A7950A94E2F7A0FD508B2F5F3F4F319665
:101D70002830310589F740FF0AC041FF03C0FC014C
:101D8000658302C0FC016683FC01618302C0FC0123
:101D90006283DF91CF910895CF93DF931F921F92BB
:101DA000CDB7DEB78FEF8093700080937100809382
:101DB0007200809373008093740080937500809309
:101DC00076008FB78A83F8949A81E0E5F0E080810D
:101DD000826080839FBF818181FFFDCF61E080E4CD
:101DE00090E025D08FB78983F8949981E0E5F0E001
:101DF00080818E7F80839FBF0F900F90DF91CF9166
:101E00000895CF93DF931F92CDB7DEB79FB7998325
:101E1000F8949981E82FF0E0E059FF4F60958081B8
:101E2000682360839FBF0F90DF91CF9108951BBE01
:101E3000FC0128ED24BF6083089508952F923F92FE
:101E40004F925F926F927F928F929F92AF92BF92CA
:101E5000DF92EF92FF920F931F93CF93DF93CDB753
:101E6000DEB7ED97CDBFDEBF1C014B018E010F5FCA
:101E70001F4F7E012EE2E20EF11C5801AB014C5FB8
:101E80005F4F3A01C4010E94EA0489E0F301D501E1
:101E900001900D928A95E1F759E0A50EB11CEA1464
:101EA000FB0481F789819A81AB81BC812D813E81C0
:101EB0004F8158852EA73FA748AB59ABF8012EABF1
:101EC0003FAB48AF59AF8AAB9BABACABBDAB2901C5
:101ED0003A014C015D018AAF9BAFACAFBDAF9F0132
:101EE00040815181628173818AAD9BADACADBDAD46
:101EF000481759076A077B0764F484819581A68196
:101F0000B7818EA79FA7A8ABB9AB4AAF5BAF6CAF49
:101F10007DAF84169506A606B7064CF4D901149633
:101F20004D905D906D907C9017974A015B013996BA
:101F3000EE16FF06A1F64EAA5FAA68AE79AE8AAA8F
:101F40009BAAACAABDAA8AAD9BADACADBDADF80154
:101F5000DD24D394208521110FC0408151816281FD
:101F60007381481559056A057B0531F048175907F3
:101F70006A077B0709F0D12C3996EE16FF0651F758
:101F8000812C912C540140E050E0BA01F8014080CE
:101F9000518062807380440D551D661D771D4480FD
:101FA000558066807780840C951CA61CB71C075F43
:101FB0001F4FE016F10651F70AA91BA92CA93DA94C
:101FC000800F911FA21FB31F8A019B01081B190BD1
:101FD0002A0B3B0BC901B8010F2EF3E04F2E512CF9
:101FE000612C712CF02DA30192017BD5D1012D9391
:101FF0003D934D935C9313978EA99FA9A8ADB9AD5E
:102000000EA51FA528A939A9800F911FA21FB31FD4
:10201000A5019401281B390B4A0B5B0BCA01B901BE
:10202000A30192015ED5D10114962D933D934D935A
:102030005C9317971896DC92C101ED96CDBFDEBF79
:10204000DF91CF911F910F91FF90EF90DF90BF90A4
:10205000AF909F908F907F906F905F904F903F9048
:102060002F900895CF93DF93CDB7DEB7C254D10937
:10207000CDBFDEBFE2DE90DE41E065E080E09AE0C9
:10208000B8D981E0809381068093010606E616E6C2
:1020900026E63FE340E050E060E271E480E09AE051
:1020A000F8DA22E143E160E476E080EA98E043DB9D
:1020B0008EE090E2ACD624E140EC58E061E0CE0145
:1020C00043960E94260460E476E080EC98E03ED8D7
:1020D0008B8927D8CE0143960E94450444E150E005
:1020E0006AE371E282E391E2CDDDBE016D5E7F4F76
:1020F000CE010A96A3DE6A857B858C859D8558DD99
:1021000023966CAF7DAF8EAF9FAF23979F938F9336
:1021100021962FAC21972F923FAC3F928EE190E217
:102120009F938F9361D60F900F900F900F900F9009
:102130000F90F12C24C0BE016D5E7F4FCE01019641
:102140007DDE69817A818B819C8132DDDC01CB016E
:1021500023962CAC3DAC4EAC5FAC2397821993090F
:10216000A409B5098DA79EA7AFA7B8AB41E050E081
:10217000BE01635D7F4F82E391E233DDF39482E33E
:1021800091E28ADD2F2D30E028173907A0F28DE289
:1021900090E23DD60DEC1CEC2CE43DE340E050E039
:1021A00060E07FE380E09AE074DAC12CD12C760104
:1021B00021E02EAFBB24B394C701B6012AE332E07D
:1021C00040E050E06CD4722E832E942EA52E2AAFC0
:1021D0003BAF4CAF5DAFBE016D5E7F4FCE01C19690
:1021E0002DDE69A85AA84BA83CA8662D752D842D14
:1021F000932DDEDCDC01CB0123962CAD3DAD4EAD45
:102200005FAD2397821B930BA40BB50B8DA79EA7E5
:10221000AFA7B8AB89AD811111C006E616E626E678
:102220003FE340E050E060E271E480E09AE031DAC0
:102230008BE390E2ECD510920D2002C0B0920D20FD
:1022400041E050E0BE01635D7F4F82E391E2C9DC73
:10225000AF929F928F927F9240E550E25F934F93AF
:10226000C3D588A98F938FA58F938EA58F938DA5A6
:102270008F932CE530E23F932F93B6D53F924F9248
:102280005F926F9287E690E29F938F93ADD5CDBF1B
:10229000DEBF3EAD313009F03BC082E391E2FCDCB1
:1022A000BC016150710982E391E208DD2B013C0120
:1022B00083E790E2ACD58DA59EA5AFA5B8A9AC01EA
:1022C000BD014419550966097709493E23E05207C3
:1022D0006105710564F481379741A105B1050CF4DE
:1022E00061C114161506160617060CF05BC10DEC3D
:1022F0001CEC2CEC3DE340E050E060E87FE380E044
:102300009AE0C7D984E890E282D542E04EAF4AC154
:102310005EAD523031F58FE890E279D58DA59EA55E
:10232000AFA5B8A9893B9848A105B1050CF43AC1FD
:102330008DE990E26CD570922821809229219092AB
:102340002A21A0922B210DEC1CEC2CEC3DE340E06B
:1023500050E060EA70E480E09AE09BD933E63EAF5B
:1023600021C14EAD433669F589EA90E250D5B0926D
:1023700005068091282190912921A0912A21B091D0
:102380002B210896A11DB11D2AAC3BAC4CAC5DAC19
:1023900082159305A405B50508F004C1B0920606A0
:1023A00000E010E020E83EE340E050E060E070E450
:1023B00080E09AE06ED988EB90E229D523E02EAF39
:1023C000F1C03EAD333009F07EC084EC90E21FD501
:1023D00082E391E261DCBC016150710982E391E228
:1023E0006DDC1B012C0160E070E082E391E266DCB1
:1023F000DC01CB0182199309A409B5098436910542
:10240000A105B10584F400E010E020E03FE340E0E6
:1024100050E060E87FE380E09AE03BD983ED90E212
:10242000F6D444E04EAF8DA59EA5AFA5B8A98134E2
:102430005CE99507A105B1050CF4B4C082199309B4
:10244000A409B509181619061A061B060CF0AAC02D
:1024500080910D20882309F4A5C0809128219091B6
:102460002921A0912A21B0912B214E96A11DB11DA9
:102470002AAC3BAC4CAC5DAC82159305A405B5050C
:1024800008F090C00F2EFEED4F2EF0E25F2EF02DE3
:102490005F924F92A9D47092282180922921909224
:1024A0002A21A0922B210DEC1CEC2CEC3DE340E00A
:1024B00050E060EA70E480E09AE0EBD80F900F9073
:1024C00033E63EAF6FC04EAD443009F05DC080E0F2
:1024D00091E29DD482E391E2DFDBBC01615071099E
:1024E00082E391E2EBDB0DA51EA52FA538A90134EF
:1024F0005CE91507210531050CF454C018012901C8
:10250000261A370A480A590A121413041404150427
:102510000CF048C080910D20882309F443C08091BD
:10252000282190912921A0912A21B0912B214E960A
:10253000A11DB11D2AAC3BAC4CAC5DAC8215930522
:10254000A405B50578F50F2EFEED4F2EF0E25F2EB7
:10255000F02D5F924F9248D47092282180922921C9
:1025600090922A21A0922B210DEC1CEC2CEC3DE347
:1025700040E050E060EA70E480E09AE08AD80F9092
:102580000F9033E63EAF0EC006E616E626E63FE3C2
:1025900040E050E060E271E480E09AE07AD88EE0BA
:1025A00091E235D44AE5C40ED11CE11CF11C04CEE5
:1025B0005058BB27AA270ED0D5C1C6D130F0CBD1F9
:1025C00020F031F49F3F11F41EF4ABC10EF4E095FE
:1025D000E7FBA1C1E92FD7D180F3BA1762077307D0
:1025E0008407950718F071F49EF5EFC10EF4E0959D
:1025F0000B2EBA2FA02D0B01B90190010C01CA01BD
:10260000A0011124FF27591B99F0593F50F4503E67
:1026100068F11A16F040A22F232F342F4427585F59
:10262000F3CF469537952795A795F0405395C9F771
:102630007EF41F16BA0B620B730B840BBAF0915029
:10264000A1F0FF0FBB1F661F771F881FC2F70EC0C8
:10265000BA0F621F731F841F48F48795779567959B
:10266000B795F7959E3F08F0B3CF9395880F08F084
:102670009927EE0F9795879508950CD073C16BD16C
:1026800040F062D130F021F45F3F19F044C15111A4
:102690009DC147C178D198F39923C9F35523B1F36C
:1026A000951B550BBB27AA2762177307840738F0C1
:1026B0009F5F5F4F220F331F441FAA1FA9F333D020
:1026C0000E2E3AF0E0E830D091505040E695001CD4
:1026D000CAF729D0FE2F27D0660F771F881FBB1F90
:1026E000261737074807AB07B0E809F0BB0B802D6A
:1026F000BF01FF2793585F4F2AF09E3F510568F0B6
:102700000AC164C15F3FECF3983EDCF38695779590
:102710006795B795F7959F5FC9F7880F911D9695B7
:10272000879597F90895E1E0660F771F881FBB1F13
:10273000621773078407BA0720F0621B730B840BC0
:10274000BA0BEE1F88F7E0950895BEE304D008F4B5
:1027500090E80895BFE322273327A9011CD158F13F
:102760009F5740F1B91738F1BFE3B91B9927B8500B
:102770003AF4660F771F881F991FB395D2F316C0DE
:10278000B8504AF0232F342F452F562F672F782F1C
:102790008827B850BAF7B85F49F08695779567955E
:1027A0005795479537952795BA95B9F70EF4BCD04C
:1027B00088940895889460E070E0CB01089504D077
:1027C0006894B11103C10895E6D088F09F5790F046
:1027D000B92F9927B751A0F0D1F0660F771F881F46
:1027E000991F1AF0BA95C9F712C0B13081F0EDD037
:1027F000B1E00895EAC0672F782F8827B85F39F0D5
:10280000B93FCCF3869577956795B395D9F73EF4A4
:1028100090958095709561957F4F8F4F9F4F08954C
:10282000E89409C097FB3EF490958095709561956A
:102830007F4F8F4F9F4F9923A9F0F92F96E9BB2720
:102840009395F695879577956795B795F111F8CF9C
:10285000FAF4BB0F11F460FF1BC06F5F7F4F8F4F07
:102860009F4F16C0882311F096E911C0772321F0FD
:102870009EE8872F762F05C0662371F096E8862F95
:1028800070E060E02AF09A95660F771F881FDAF7EC
:10289000880F9695879597F90895E894F92F96EB08
:1028A000FF2381F0121613061406440B9395F69538
:1028B00087957795679557954040FF23B9F71BC0DB
:1028C00099270895882351F49850D2F7872B762FB3
:1028D000652F542F432F322F20E0B1F31216130629
:1028E0001406440B88233AF09A95440F551F661F2F
:1028F000771F881FCAF755234AF4440F551F11F458
:1029000060FF04C06F5F7F4F8F4F9F4F880F96957A
:10291000879597F9089597F99F6780E870E060E0E0
:1029200008959FEF80EC089590958095709560953F
:1029300050954095309521953F4F4F4F5F4F6F4FCA
:102940007F4F8F4F9F4F089500240A941616170645
:1029500018060906089500240A9412161306140690
:1029600005060895092E0394000C11F4882352F0F3
:10297000BB0F40F4BF2B11F460FF04C06F5F7F4FAB
:102980008F4F9F4F089557FD9058440F551F59F092
:102990005F3F71F04795880F97FB991F61F09F3F4C
:1029A00079F087950895121613061406551FF2CF75
:1029B0004695F1DF08C0161617061806991FF1CFC5
:1029C00086957105610508940895E894BB276627EC
:1029D0007727CB0197F908950BD0C4CFB5DF28F046
:1029E000BADF18F0952309F096CF9BCF1124EECFD4
:1029F000CADFA0F3959FD1F3950F50E0551F629F5A
:102A0000F001729FBB27F00DB11D639FAA27F00D47
:102A1000B11DAA1F649F6627B00DA11D661F829F6E
:102A20002227B00DA11D621F739FB00DA11D621F53
:102A3000839FA00D611D221F749F3327A00D611D70
:102A4000231F849F600D211D822F762F6A2F112452
:102A50009F5750408AF0E1F088234AF0EE0FFF1FA5
:102A6000BB1F661F771F881F91505040A9F79E3FDC
:102A7000510570F050CFAACF5F3FECF3983EDCF3E6
:102A8000869577956795B795F795E7959F5FC1F719
:102A9000FE2B880F911D9695879597F90895A1E2D1
:102AA0001A2EAA1BBB1BFD010DC0AA1FBB1FEE1FC8
:102AB000FF1FA217B307E407F50720F0A21BB30B13
:102AC000E40BF50B661F771F881F991F1A9469F78F
:102AD00060957095809590959B01AC01BD01CF01EB
:102AE0000895052E97FB16F400940FD057FD05D0DE
:102AF000D6DF07FC02D046F408C0509540953095CB
:102B000021953F4F4F4F5F4F089590958095709559
:102B100061957F4F8F4F9F4F08950DD1A59F900DC9
:102B2000B49F900DA49F800D911D11240895DF93F3
:102B3000CF931F930F939A9DF02D219FF00D8B9DA6
:102B4000F00D8A9DE02DF10D039FF00D029FE00D29
:102B5000F11D4E9DE00DF11D5E9DF00D4F9DF00DA0
:102B60007F936F93BF92AF925F934F93D501E3D062
:102B70008B01AC01D701DFD0EB01E80FF91FD601C3
:102B80001FD02F913F91D601D6D0C60FD71FE81F77
:102B9000F91FAF91BF9114D02F913F91CCD0C60FA8
:102BA000D71FE81FF91FD601C6D0E60FF71F9801FF
:102BB000BE01CF0111240F911F91CF91DF91089594
:102BC000BAD0460F571FC81FD91F08F43196089571
:102BD000689401C0E8948F929F92CF93DF9305D0C1
:102BE000DF91CF919F908F90089588249924F401CC
:102BF000E401B0E49F93AA279A158B049C04ED0589
:102C0000FE05CF05D007A10798F4AD2FDC2FCF2FFD
:102C1000FE2FE92D982C892E982F872F762F652F40
:102C2000542F432F322F2227B85031F7BF9127C09E
:102C30001B2EBF91BB27220F331F441F551F661F3A
:102C4000771F881F991F881C991CEE1FFF1FCC1F20
:102C5000DD1FAA1FBB1F8A149B04EC05FD05CE05D2
:102C6000DF05A007B10748F08A189B08EC09FD09A9
:102C7000CE09DF09A00BB10B21601A94E1F62EF406
:102C80009401AF01BE01CD01000C08950F930830EF
:102C900090F0982F872F762F652F542F432F322FA8
:102CA00022270850F4CF220F331F441F551F661FE1
:102CB000771F881F991F0A95B2F70F91089597FB08
:102CC00010F8169400080F93083098F00850232F3E
:102CD000342F452F562F672F782F892F902DF4CF23
:102CE0000594979587957795679557954795379567
:102CF00027950A95AAF70F9108952A0D3B1D4C1DA3
:102D00005D1D6E1D7F1D801F911F08952A193B09AF
:102D10004C095D096E097F09800B910B0895002411
:102D2000A7FD00942A173005400550056005700581
:102D3000800590050895A29FB001B39FC001A39F95
:102D4000700D811D1124911DB29F700D811D1124E4
:102D5000911D08950F931F93CF93DF93009731F444
:102D60006115710519F480E090E039C08B01EC0128
:102D70006EE070E081E090E071D2FC01892B99F364
:102D800080E883830115110571F00287138781E8BC
:102D9000838380918A2190918B21892B21F4E09368
:102DA0008A21F0938B212097C9F0C087D187838136
:102DB0008260838380918C2190918D21892B71F485
:102DC000E0938C21F0938D2180918E2190918F2121
:102DD000892B21F4E0938E21F0938F21CF01DF9195
:102DE000CF911F910F910895CF93DF93CDB7DEB7A9
:102DF000AE014A5F5F4FFA0161917191AF0180911D
:102E00008C2190918D2133D0DF91CF9108950F9334
:102E10001F93CF93DF93E0918C21F0918D2123813B
:102E200021FF1BC08C01D0E0C0E0F80181918F012F
:102E300060918C2170918D21DB011896ED91FC91B0
:102E40001997882331F01995892B79F3DFEFCFEFAC
:102E5000ECCF8AE01995892B19F08FEF9FEF02C014
:102E60008D2F9C2FDF91CF911F910F9108952F925D
:102E70003F924F925F926F927F928F929F92AF920A
:102E8000BF92CF92DF92EF92FF920F931F93CF9357
:102E9000DF93CDB7DEB72B97CDBFDEBF6C017B01D3
:102EA0008A01FC0116821782838181FFBFC1CE0196
:102EB00001963C01F6019381F70193FD859193FF03
:102EC00081917F01882309F4ADC1853239F493FDE6
:102ED000859193FF81917F01853221F4B60190E0C5
:102EE00015D3E8CF912C212C312CFFE1F315D8F02C
:102EF0008B3279F038F4803279F08332A1F4232DCB
:102F000020611DC08D3261F0803369F4232D216072
:102F100016C0832D8260382EE32DE4603E2E2AC039
:102F2000F32DF8601DC037FC2DC020ED280F2A308E
:102F300040F08E32B9F436FC75C1232D2064322E58
:102F400019C036FE06C08AE0989E200D1124922EEC
:102F500011C0EAE02E9E200D1124222EF32DF062E6
:102F60003F2E08C08C3621F4832D8068382E02C095
:102F7000883641F4F70193FD859193FF81917F019C
:102F80008111B3CF982F9F7D9554933028F40C5F17
:102F90001F4F9FE399830DC0833631F0833771F063
:102FA000833509F055C020C0F801808189830E5F08
:102FB0001F4F88248394912C530112C02801F2E002
:102FC0004F0E511CF801A080B18036FE03C0692D60
:102FD00070E002C06FEF7FEFC5018DD24C0182011E
:102FE000F32DFF773F2E15C0280122E0420E511C21
:102FF000F801A080B18036FE03C0692D70E002C0E8
:103000006FEF7FEFC50165D24C01F32DF0683F2EC5
:10301000820133FC19C0822D90E088169906A0F435
:10302000B60180E290E072D22A94F5CFF50137FC28
:10303000859137FE81915F01B60190E067D2211042
:103040002A9421E0821A91088114910479F7E1C051
:10305000843611F0893639F5F80137FE07C06081F2
:103060007181828193810C5F1F4F08C060817181E3
:10307000072E000C880B990B0E5F1F4FF32DFF7668
:103080003F2E97FF09C090958095709561957F4F71
:103090008F4F9F4FF0683F2E2AE030E0A30172D29D
:1030A000882E861844C0853731F4232D2F7EB22E0A
:1030B0002AE030E025C0932D997FB92E8F36C1F0DC
:1030C00018F4883579F0AEC0803719F0883721F0D0
:1030D000A9C0E92FE061BE2EB4FE0DC0FB2DF46047
:1030E000BF2E09C034FE0AC0292F2660B22E06C0AA
:1030F00028E030E005C020E130E002C020E132E00D
:10310000F801B7FE07C060817181828193810C5FF5
:103110001F4F06C06081718180E090E00E5F1F4FFD
:10312000A30130D2882E8618FB2DFF773F2E36FE66
:103130000DC0232D2E7FA22E891458F434FE0BC00F
:1031400032FC09C0832D8E7EA82E05C0B82CA32C7E
:1031500003C0B82C01C0B92CA4FE0FC0FE01E80DBD
:10316000F11D8081803321F49A2D997EA92E09C00A
:10317000A2FE06C0B394B39404C08A2D867809F0E9
:10318000B394A3FC10C0A0FE06C0B21480F4280CB7
:10319000922C9B180DC0B21458F4B60180E290E056
:1031A000B5D1B394F8CFB21418F42B1802C0982CF0
:1031B000212CA4FE0FC0B60180E390E0A7D1A2FEAF
:1031C00016C0A1FC03C088E790E002C088E590E04B
:1031D000B6010CC08A2D867851F0A1FE02C08BE2A8
:1031E00001C080E2A7FC8DE2B60190E08FD1891486
:1031F00030F4B60180E390E089D19A94F8CF8A94B4
:10320000F301E80DF11D8081B60190E07FD18110BE
:10321000F6CF222009F44ECEB60180E290E076D1BE
:103220002A94F7CFF6018681978102C08FEF9FEF36
:103230002B96CDBFDEBFDF91CF911F910F91FF90F5
:10324000EF90DF90CF90BF90AF909F908F907F9046
:103250006F905F904F903F902F9008950F931F9322
:10326000CF93DF93869F8001879F100D969F100D4F
:103270001124C8010DD0EC01009721F0A80160E0F5
:1032800070E032D1CE01DF91CF911F910F9108955F
:103290000F931F93CF93DF938230910510F482E058
:1032A00090E0E0919221F091932120E030E0A0E0C5
:1032B000B0E0309719F140815181028113814817A4
:1032C0005907C8F08417950769F4109731F01296E2
:1032D0000C93129713961C9327C00093922110937E
:1032E000932122C02115310519F04217530718F414
:1032F0009A01BD01EF01DF01F801DBCF2115310596
:10330000F9F0281B390B2430310580F48A819B8128
:103310006115710521F0FB018283938304C08093C2
:10332000922190939321FE01329644C0FE01E20F58
:10333000F31F8193919322503109288339833AC036
:103340002091902130919121232B41F42091022052
:1033500030910320209390213093912120910020DF
:10336000309101202115310541F42DB73EB7409130
:10337000042050910520241B350BE0919021F09101
:103380009121E217F307A0F42E1B3F0B28173907F2
:1033900078F0AC014E5F5F4F2417350748F04E0FB1
:1033A0005F1F40939021509391218193919302C08C
:1033B000E0E0F0E0CF01DF91CF911F910F910895F0
:1033C000CF93DF93009709F481C0FC0132971282FA
:1033D0001382A0919221B0919321109781F42081C2
:1033E0003181820F931F20919021309191212817D4
:1033F000390751F5E0939021F093912167C0ED01D9
:1034000020E030E0CE17DF0740F44A815B819E0167
:1034100041155105F1F0EA01F5CFC283D383408114
:103420005181840F951FC817D90759F48881998154
:10343000840F951F0296808391838A819B8182836A
:1034400093832115310529F4E0939221F093932180
:103450003DC0E901EA83FB8349915991C40FD51F0F
:10346000EC17FD0761F480819181840F951F02960E
:10347000E90188839983828193818A839B83E0E039
:10348000F0E012968D919C911397009719F0FD0131
:10349000DC01F7CF8D919C9111979D012E5F3F4FDD
:1034A000820F931F20919021309191212817390785
:1034B00069F4309729F4109292211092932102C05E
:1034C00012821382A0939021B0939121DF91CF912A
:1034D0000895FC010590615070400110D8F7809567
:1034E00090958E0F9F1F0895DC0101C06D93415090
:1034F0005040E0F70895FC016150704001900110C8
:10350000D8F7809590958E0F9F1F08950F931F9366
:10351000CF93DF93FB01238121FD03C08FEF9FEF4A
:103520002CC022FF16C04681578124813581421765
:10353000530744F4A081B1819D012F5F3F4F208349
:1035400031838C93268137812F5F3F4F26833783CA
:1035500014C08B01EC01FB010084F185E02D19956D
:10356000892BE1F6D80116968D919C9117970196BB
:1035700016968D939C931797CE01DF91CF911F9153
:103580000F910895FA01AA27283051F1203181F1D5
:10359000E8946F936E7F6E5F7F4F8F4F9F4FAF4F5B
:1035A000B1E03ED0B4E03CD0670F781F891F9A1F6E
:1035B000A11D680F791F8A1F911DA11D6A0F711D22
:1035C000811D911DA11D20D009F468943F912AE02E
:1035D000269F11243019305D3193DEF6CF01089516
:1035E000462F4770405D4193B3E00FD0C9F7F6CF47
:1035F000462F4F70405D4A3318F0495D31FD40520F
:10360000419302D0A9F7EACFB4E0A69597958795A4
:1036100077956795BA95C9F7009761057105089583
:103620009B01AC010A2E069457954795379527952F
:10363000BA95C9F7620F731F841F951FA01D0895C7
:04364000F894FFCF2C
:1036440000009421200000C2010003000101496E22
:10365400697469616C697A696E672E2E2E00496EF1
:10366400697420616C743A20256C690A00496E699A
:103674007469616C697A6564210A004D533536308A
:1036840037204461746120496E76616C696421005D
:1036940074696D653A20256C692C2000616C743A5C
:1036A40020256C692C2000707265733A20256C69A2
:1036B4002C200073746174653A205052454C415576
:1036C4004E4348000A0A417363656E74210A00730D
:1036D400746174653A20415343454E54000A0A43C9
:1036E4007574646F776E210A0073746174653A208F
:1036F400435554444F574E000A0A44657363656E3C
:1037040074210A0073746174653A20444553434537
:103714004E54000A0A4C616E646564210A005374B5
:10372400696C6C20617363656E64696E67212052F5
:1037340065737461727420637574646F776E2100AD
:1037440073746174653A204C414E44454400496E9B
:1037540076616C6964205374617465212028686FF4
:08376400773F213F21290000FD
:00000001FF
