:10000000FDC0000021C100001FC100001DC1000093
:100010001BC1000019C1000017C1000015C100007C
:1000200013C1000011C100000FC100000DC100008C
:100030000BC1000009C1000007C1000005C100009C
:1000400003C1000001C10000FFC00000FDC00000AE
:10005000FBC00000F9C00000F7C00000F5C00000C0
:10006000F3C00000F1C00000EFC00000EDC00000D0
:10007000EBC00000E9C00000E7C00000E5C00000E0
:10008000E3C00000E1C00000DFC00000DDC00000F0
:10009000DBC00000D9C00000D7C00000D5C0000000
:1000A000D3C00000D1C00000CFC00000CDC0000010
:1000B000CBC00000C9C00000C7C00000C5C0000020
:1000C000C3C00000C1C00000BFC00000BDC0000030
:1000D000BBC00000B9C00000B7C00000B5C0000040
:1000E000B3C00000B1C00000AFC00000ADC0000050
:1000F000ABC00000A9C00000A7C00000A5C0000060
:10010000A3C00000A1C000009FC000009DC000006F
:100110009BC0000099C0000097C0000095C000007F
:1001200093C0000091C000008FC000008DC000008F
:100130008BC0000089C0000087C0000085C000009F
:1001400083C0000081C000007FC000007DC00000AF
:100150007BC0000079C0000077C0000075C00000BF
:1001600073C0000071C000006FC000006DC00000CF
:100170006BC0000069C0000067C0000065C00000DF
:1001800063C0000061C000005FC000005DC00000EF
:100190005BC0000059C0000057C0000055C00000FF
:1001A00053C0000051C000004FC000004DC000000F
:1001B0004BC0000049C0000047C0000045C000001F
:1001C00043C0000041C000003FC000003DC000002F
:1001D0003BC0000039C0000037C0000035C000003F
:1001E00033C0000031C000002FC000002DC000004F
:1001F0002BC0000029C0000027C0000011241FBE32
:10020000CFEFCDBFDFE3DEBF00E00CBF18BE19BEED
:100210001ABE1BBE10E2A0E0B0E2E8E4F6E200E0A5
:100220000BBF02C007900D92AE30B107D9F71BBECD
:1002300020E2AEE0B0E201C01D92AE34B207E1F7B9
:100240000E942B0E0C942213DBCECF93DF931F92D0
:10025000CDB7DEB78091122090911320E0910E204F
:10026000F0910F20BE016F5F7F4F19958981082E95
:10027000000C990B0F90DF91CF910895FC019181B3
:1002800095FFFDCF608380E090E00895FC019181AF
:100290009923ECF7808108954F925F926F927F923D
:1002A0008F929F92AF92BF92EF92FF920F931F9304
:1002B000CF937C014A015B0128013901FC01848153
:1002C00082FF16C0D901C801689412F8B695A795A7
:1002D000979587951694D1F7B901A801032E36E1B9
:1002E00076956795579547953A95D1F7302D15C076
:1002F000D901C801689413F8B695A7959795879585
:100300001694D1F7B901A801032E37E176956795C8
:10031000579547953A95D1F7302D88159905AA0537
:10032000BB0508F4A6C084169506A606B70608F411
:10033000A2C0F701848182FD04C0880C991CAA1C0C
:10034000BB1CC301B201A50194010E9457102F3FAD
:1003500031054105510508F490C08FEF90E0A0E011
:10036000B0E0C9EF05C0281739074A075B0758F006
:10037000880F991FAA1FBB1FCD3F0CF48160CF5F70
:10038000C73089F74FC0CC230CF04CC0D501C40155
:10039000880F991FAA1FBB1F880F991FAA1FBB1F79
:1003A000880F991FAA1FBB1F481A590A6A0A7B0A9D
:1003B000CE3FF4F48DEF9FEF8C1B9109C7FD939511
:1003C00004C0440C551C661C771C8A95D2F7D501D5
:1003D000C401B695A79597958795BC01CD01640D8D
:1003E000751D861D971DA50194010E94571037C0E9
:1003F00083E08C0FA501940104C0220F331F441F1A
:10040000551F8A95D2F7DA01C901B695A795979538
:100410008795BC01CD01640D751D861D971D0E9439
:1004200057101DC083E08C0FA501940104C0220F5A
:10043000331F441F551F8A95D2F7DA01C901B695BB
:10044000A79597958795BC01CD01640D751D861DF7
:10045000971D0E9457102150310941095109832FDE
:100460008F70C295C07FC82BF701C783268381E0B8
:1004700018C080E016C080E014C0D501C401880F08
:10048000991FAA1FBB1F880F991FAA1FBB1F880F88
:10049000991FAA1FBB1F481A590A6A0A7B0AC9EF8B
:1004A00089CFCF911F910F91FF90EF90BF90AF90A8
:1004B0009F908F907F906F905F904F9008950F93D3
:1004C0001F93CF93DF93EC018B01009709F45DC17B
:1004D000803C910529F460E180E00E94350D55C112
:1004E000C03484E0D80729F468E080E00E94350D2C
:1004F0004CC1C115E4E0DE0729F464E080E00E940D
:10050000350D43C1C038F1E0DF0729F462E080E037
:100510000E94350D3AC1C11581E0D80729F461E088
:1005200080E00E94350D31C1C038E3E0DE0729F4D8
:1005300061E081E00E94350D28C1C039F3E0DF079A
:1005400029F461E082E00E94350D1FC1C11582E0EF
:10055000D80729F462E081E00E94350D16C1C0344D
:10056000E2E0DE0729F462E082E00E94350D0DC171
:10057000C115F3E0DF0729F464E081E00E94350D46
:1005800004C1C03283E0D80729F464E082E00E940D
:10059000350DFBC0C115E8E0DE0729F461E083E01A
:1005A0000E94350DF2C0C115F9E0DF0729F461E0C2
:1005B00084E00E94350DE9C0C1158AE0D80729F40E
:1005C00061E085E00E94350DE0C0C115EBE0DE077B
:1005D00029F461E086E00E94350DD7C0C034F8E010
:1005E000DF0729F462E083E00E94350DCEC0C034FD
:1005F00089E0D80729F462E084E00E94350DC5C087
:10060000C034EAE0DE0729F462E085E00E94350D9F
:10061000BCC0C034FBE0DF0729F462E086E00E9442
:10062000350DB3C0C03988E0D80729F464E083E011
:100630000E94350DAAC0C039E9E0DE0729F464E064
:1006400084E00E94350DA1C0C039FAE0DF0729F42B
:1006500064E085E00E94350D98C0C0398BE0D80772
:1006600029F464E086E00E94350D8FC0C03CE8E0CC
:10067000DE0729F468E083E00E94350D86C0C03CA7
:10068000F9E0DF0729F468E084E00E94350D7DC0C1
:10069000C03C8AE0D80729F468E085E00E94350D67
:1006A00074C0C03CEBE0DE0729F468E086E00E94FD
:1006B000350D6BC0C03AF8E0DF0729F460E183E054
:1006C0000E94350D62C0C03A89E0D80729F460E184
:1006D00084E00E94350D59C0C03AEAE0DE0729F4F3
:1006E00060E185E00E94350D50C0C03AFBE0DF07B5
:1006F00029F460E186E00E94350D47C0C03B88E0E8
:10070000D80729F460E283E00E94350D3EC0C03B6B
:10071000E9E0DE0729F460E284E00E94350D35C08F
:10072000C03BFAE0DF0729F460E285E00E94350D66
:100730002CC0C03B8BE0D80729F460E286E00E9421
:10074000350D23C0C038E4E0DE0729F460E483E01F
:100750000E94350D1AC0C039F4E0DF0729F460E4C7
:1007600084E00E94350D11C0C03A84E0D80729F416
:1007700060E485E00E94350D08C0C03BE4E0DE0780
:1007800021F460E486E00E94350D8D818F738D83A6
:10079000F80195818481892B9681911198E0892BAC
:1007A0008D83F801408151816281738100E018E4FA
:1007B00028EE31E0CE0170DD9C8198609C839C81A5
:1007C00090619C83DF91CF911F910F91089504C098
:1007D00061507109810991096115710581059105C2
:1007E000B9F708950F931F93CF93DF938C0163D4D0
:1007F000C82FD0E0DC2FCC27C8015DD49E01282B68
:10080000C901DF91CF911F910F910895CF92DF928F
:10081000EF92FF92CF93DF93EC014DD4C82ED12CF1
:10082000E12CF12C7601DD24CC24CE0144D4D82A4D
:10083000CE0141D4A7019601282BCA01B901DF914D
:10084000CF91FF90EF90DF90CF900895FC0120832F
:1008500041835283638315860895CF93DF93EC0120
:10086000888137D46EE189819A812DD46BE278E654
:1008700080E090E0ACDF888140D466ED74E180E0F8
:1008800090E0A5DFDF91CF910895CF93DF93EC0146
:10089000E4DF88811ED462EA89819A8114D4898137
:1008A0009A81A0DF8E879F87888127D4888111D481
:1008B00064EA89819A8107D489819A8193DF888B40
:1008C000998B88811AD4888104D466EA89819A81B7
:1008D000FAD389819A8186DF8A8B9B8B88810DD49C
:1008E0008881F7D368EA89819A81EDD389819A81D9
:1008F00079DF8C8B9D8B888100D48881EAD36AEA6A
:1009000089819A81E0D389819A816CDF8E8B9F8B5C
:100910008881F3D38881DDD36CEA89819A81D3D32E
:1009200089819A815FDF888F998F8881E6D3DF91F3
:10093000CF910895823029F128F4882341F0813045
:1009400099F046C0833051F18430A9F141C088E468
:10095000FB01808388E5FA01808380E593E2F90159
:100960008083918380E0089586E4FB01808386E59F
:10097000FA0180838CEB91E1F9018083918380E01F
:10098000089584E4FB01808384E5FA01808388EE86
:1009900098E0F9018083918380E0089582E4FB016F
:1009A000808382E5FA01808382E994E0F901808303
:1009B000918380E0089580E4FB01808380E5FA0163
:1009C000808388E592E0F9018083918380E0089537
:1009D00081E008952F923F924F925F926F927F92A3
:1009E0008F929F92AF92BF92CF92DF92EF92FF923F
:1009F0000F931F93CF93DF93CDB7DEB7E597CDBFAE
:100A0000DEBF4C0181E0D4011C968C931C979E01A3
:100A10002F5F3F4FAE014C5F5F4FBE016D5F7F4F59
:100A20001D968C9187DF882319F0F40114862DC35D
:100A3000D4018C914ED36B81F4018181928143D397
:100A4000D4018C915AD349815A8141155105D1F174
:100A5000A12C0F2EF8E4BF2EF02D0F2EF8EECF2E86
:100A6000F02DDD24D394E12CF12C00E010E0242FB4
:100A7000352F40E050E060E070E080E090E00E94C0
:100A800092100F2EF6E0AF2EF02DB12CC12CD12CF0
:100A90000E94E510215C3D4B404F5F4F6F4F7F4FF1
:100AA0008F4F9F4F0E94B80F20E034E244E759E493
:100AB0000E94A80E0E94150F622F732F842F952F6E
:100AC00086DE05C066E070E080E090E080DEF40144
:100AD0008081FFD260E0D40111968D919C91129794
:100AE000F2D2F4018181928191DE6CA77DA78EA75D
:100AF0009FA7D4018C9101D3F4018081EAD26C814B
:100B0000D40111968D919C911297DDD2F4018081D0
:100B1000F4D249815A8141155105D1F1A12C0F2EF2
:100B2000F8E4BF2EF02D0F2EF8EECF2EF02DDD24A1
:100B3000D394E12CF12C00E010E0242F352F40E07D
:100B400050E060E070E080E090E00E9492100F2E94
:100B5000F6E0AF2EF02DB12CC12CD12C0E94E51067
:100B6000215C3D4B404F5F4F6F4F7F4F8F4F9F4FEB
:100B70000E94B80F20E034E244E759E40E94A80E36
:100B80000E94150F622F732F842F952F20DE05C032
:100B900066E070E080E090E01ADED4018C9199D29A
:100BA00060E0F401818192818ED2D40111968D9101
:100BB0009C9112972BDE6B017C01F40180819DD208
:100BC000D40156964D915C915797242F352F40E0D4
:100BD00050E060E070E080E090E008E00E944111A9
:100BE0002D833E834F83588769877A878B879C87BD
:100BF000970186018D819E81AF81B885081B190BF5
:100C00002A0B3B0B0D831E832F833887330F000B7A
:100C1000102F9801098B1A8B2B8B3C8BD401589683
:100C20004D915C915997AD80BE80CF80D884E98882
:100C3000FE2C0E2D1E2D242F352F40E050E060E0BD
:100C400070E080E090E00E94921007E10E945A114B
:100C5000822F932FA42FB52F8D879E87AF87B88BB8
:100C60008C019D010053184F2F4F3F4F0D8B1E8B52
:100C70002F8B388F003D1740210531050CF087C0C0
:100C8000FE2C0E2D1E2D2A2D3B2D4C2D5D2D602F63
:100C9000702F802F9E2D0E949210C22ED32EE42EF4
:100CA000F52E062F172FA82EB92EA0E00E948A112C
:100CB00084F421503109410950486F4F7F4F8F4FC5
:100CC0009F4FC22ED32EE42EF52E062F172FA82EBF
:100CD000B92E2C2D3D2D4E2D5F2D602F712F8A2D7D
:100CE0009B2D0FE10E945A11298F3A8F4B8F5C8FF9
:100CF0004D845E846F847888770C4408542C3201CC
:100D00002D853E854F855889642D742D842D942D15
:100D100002E00E944111A22EB32EC42ED52EE62E43
:100D2000F72EE82F192F04E00E9441110E2F0E9488
:100D30008111AD84BE84CF84D888E42CF42C042D9A
:100D4000142D0E9478110E94921004E00E945A1102
:100D50002D8F3E8F4F8F58A369A37AA38BA3292E83
:100D60002A2D3B2D4C2D5D2D642D742D842D942D1D
:100D700001E00E944111042D0E9492102D873CA396
:100D80004DA35EA36FA378A789A79AA714C01D8659
:100D90001CA21DA21EA21FA218A619A61AA61D8E6D
:100DA0001E8E1F8E18A219A21AA21BA2212C198E08
:100DB0001A8E1B8E1C8E8D899E89AF89B88D8432C8
:100DC000EAEF9E07EFEFAE07BE070CF05DC02D897E
:100DD0003E894F89588D6C017D01FF0CCC08DC2CBD
:100DE00076016C2D7C2D8C2D9C2D24523A4F4F4F2B
:100DF0005F4F6F4F7F4F8F4F9F4F322E432E542E9A
:100E0000652E762EB72FA82FF92F04E00E944111EE
:100E1000A32CB42CC52CD62CE72CFB2E0A2F1F2F6D
:100E20000E948111E2E02E27AD8CBE8CCF8CD8A021
:100E3000E9A0FAA00BA1122D0E9478112D8F3E8FF0
:100E40004F8F58A369A37AA38BA3292E232D342D6A
:100E5000452D562D672D7B2F8A2F9F2F03E00E9453
:100E600041112E27AD84BCA0CDA0DEA0EFA0F8A438
:100E700009A51AA50E9478112D873CA34DA35EA356
:100E80006FA378A789A79AA7D40113968C9113977B
:100E90008150823018F01C961C92F7C0F4014489EE
:100EA0005589AD80BE80CF80D884E988FE2C0E2D78
:100EB0001E2D242F352F40E050E060E070E080E0F0
:100EC00090E00E94921006E00E945A11422E532E8A
:100ED000642E752EB62FA72F382E9BA7F401A0885D
:100EE000B1882A2D3B2D40E050E060E070E080E0CA
:100EF00090E001E10E944111A22EB32EC42ED52E06
:100F0000E62EF72E082F192F242D352D462D572D7F
:100F10006B2F7A2F832D9BA50E947811322E3BA731
:100F200048AB59AB6AAB7BAB8CAB9DAB4289538969
:100F3000AD80BE80CF80D884E988FE2C0E2D1E2D7A
:100F4000242F352F40E050E060E070E080E090E03A
:100F50000E94921007E00E945A11422E532E642ED6
:100F6000752EB62FA72F8D83998BF401A684B78495
:100F70002A2D3B2D40E050E060E070E080E090E002
:100F800000E10E944111A22EB32EC42ED52EE62ED2
:100F9000F72E082F192F242D352D462D572D6B2F69
:100FA0007A2F8D8199890E947811AD84BCA0CDA043
:100FB000DEA0EFA0F8A409A51AA50E948111CCA477
:100FC000DDA4EEA4FFA456016701E12CF12C8701FA
:100FD000AD82BE82CF82D886E986FA860B871C87CF
:100FE000E12CF12C00E010E00E94921005E10E943B
:100FF0005A11422E532E642E752EB62FA72FF82F7E
:10100000E92F232D3BA548A959A96AA97BA98CA939
:101010009DA9AD8CBE8CCF8CD8A0E9A0FAA00BA165
:10102000122D0E948111A22EB32EC42ED52EE62E93
:10103000F72E082F192F242D352D462D572D6B2FC8
:101040007A2F8F2F9E2F0E9481110FE00E945A113C
:10105000D40114962C93149715963C9315971696D5
:101060004C93169717965C938D899E89AF89B88D9E
:10107000A98CBA8CCB8CDC8C8A199B09AC09BD0974
:10108000F40180879187A287B387E596CDBFDEBF45
:10109000DF91CF911F910F91FF90EF90DF90CF9054
:1010A000BF90AF909F908F907F906F905F904F9088
:1010B0003F902F900895FC018EEF838392819923B6
:1010C000ECF783810895FC01638392819923ECF707
:1010D0000895E82FE695E695E69540E2E49FF00155
:1010E0001124FA5F877021E030E0A90102C0440FAB
:1010F000551F8A95E2F746830895E82FE695E69511
:10110000E69540E2E49FF0011124FA5F877021E048
:1011100030E0A90102C0440F551F8A95E2F74583CC
:101120000895E82FE695E695E69590E2E99FF001AF
:101130001124FA5F982F977021E030E002C0220F4F
:10114000331F9A95E2F72183D8CF08950F931F9309
:10115000CF93DF93EC018B01009709F436C1803CFB
:10116000910521F460E180E080D42FC1C03484E097
:10117000D80721F468E080E078D427C1C115E4E005
:10118000DE0721F464E080E070D41FC1C038F1E0D4
:10119000DF0721F462E080E068D417C1C11581E067
:1011A000D80721F461E080E060D40FC1C038E3E0EB
:1011B000DE0721F461E081E058D407C1C039F3E0D3
:1011C000DF0721F461E082E050D4FFC0C11582E066
:1011D000D80721F462E081E048D4F7C0C034E2E0EF
:1011E000DE0721F462E082E040D4EFC0C115F3E0F5
:1011F000DF0721F464E081E038D4E7C0C03283E047
:10120000D80721F464E082E030D4DFC0C115E8E003
:10121000DE0721F461E083E028D4D7C0C115F9E0EE
:10122000DF0721F461E084E020D4CFC0C1158AE05B
:10123000D80721F461E085E018D4C7C0C115EBE000
:10124000DE0721F461E086E010D4BFC0C034F8E0CE
:10125000DF0721F462E083E008D4B7C0C03489E03E
:10126000D80721F462E084E000D4AFC0C034EAE0E3
:10127000DE0721F462E085E0F8D3A7C0C034FBE0CC
:10128000DF0721F462E086E0F0D39FC0C03988E038
:10129000D80721F464E083E0E8D397C0C039E9E0DF
:1012A000DE0721F464E084E0E0D38FC0C039FAE0C7
:1012B000DF0721F464E085E0D8D387C0C0398BE034
:1012C000D80721F464E086E0D0D37FC0C03CE8E0DA
:1012D000DE0721F468E083E0C8D377C0C03CF9E0C2
:1012E000DF0721F468E084E0C0D36FC0C03C8AE02F
:1012F000D80721F468E085E0B8D367C0C03CEBE0D4
:10130000DE0721F468E086E0B0D35FC0C03AF8E0C1
:10131000DF0721F460E183E0A8D357C0C03A89E039
:10132000D80721F460E184E0A0D34FC0C03AEAE0DE
:10133000DE0721F460E185E098D347C0C03AFBE0C6
:10134000DF0721F460E186E090D33FC0C03B88E036
:10135000D80721F460E283E088D337C0C03BE9E0DE
:10136000DE0721F460E284E080D32FC0C03BFAE0C6
:10137000DF0721F460E285E078D327C0C03B8BE033
:10138000D80721F460E286E070D31FC0C038E4E0E3
:10139000DE0721F460E483E068D317C0C039F4E0CD
:1013A000DF0721F460E484E060D30FC0C03A84E03A
:1013B000D80721F460E485E058D307C0C03BE4E0DF
:1013C000DE0719F460E486E050D3F8018181806B78
:1013D000818381818F7B81838481806B84838085FD
:1013E0008F7B808780ED8883DF91CF911F910F9154
:1013F0000895CF93DF93EB010E9446018883DF912C
:10140000CF9108950C943E010895CF92DF92EF9210
:10141000FF920F931F93CF93DF93CDB7DEB727973C
:10142000CDBFDEBF8C01F22E842F8770CC24C394F5
:10143000D12CB60102C0660F771F8A95E2F7469558
:101440004695469520E2429FC001112441E050E0BC
:101450009A5FAFD28F2D8770B60102C0660F771FDB
:101460008A95E2F7F694F694F69420E2F29EC00193
:10147000112440E050E09A5F9CD20115110509F457
:10148000D2C1003C110521F460E180E0EED2CBC175
:10149000003484E0180721F468E080E0E6D2C3C19C
:1014A000011524E0120721F464E080E0DED2BBC124
:1014B000003881E0180721F462E080E0D6D2B3C1A1
:1014C000011521E0120721F461E080E0CED2ABC12A
:1014D000003883E0180721F461E081E0C6D2A3C19F
:1014E000003923E0120721F461E082E0BED29BC103
:1014F000011582E0180721F462E081E0B6D293C1C1
:10150000003422E0120721F462E082E0AED28BC107
:10151000011583E0180721F464E081E0A6D283C1BD
:10152000003223E0120721F464E082E09ED27BC106
:10153000011588E0180721F461E083E096D273C1B9
:10154000011529E0120721F461E084E08ED26BC11D
:1015500001158AE0180721F461E085E086D263C1B5
:1015600001152BE0120721F461E086E07ED25BC119
:10157000003488E0180721F462E083E076D253C19A
:10158000003429E0120721F462E084E06ED24BC1FE
:1015900000348AE0180721F462E085E066D243C196
:1015A00000342BE0120721F462E086E05ED23BC1FA
:1015B000003988E0180721F464E083E056D233C193
:1015C000003929E0120721F464E084E04ED22BC1F7
:1015D00000398AE0180721F464E085E046D223C18F
:1015E00000392BE0120721F464E086E03ED21BC1F3
:1015F000003C88E0180721F468E083E036D213C18C
:10160000003C29E0120721F468E084E02ED20BC1EF
:10161000003C8AE0180721F468E085E026D203C187
:10162000003C2BE0120721F468E086E01ED2FBC0EC
:10163000003A88E0180731F560E183E016D280EACD
:1016400098E0809312209093132082E09AE0809398
:1016500010209093112089EF99E080930E209093B1
:101660000F20E6E0F0E284818D8385818E83868180
:101670008F8380819181A281B38189839A83AB8397
:10168000BC837DC0003A29E0120721F460E184E0C8
:10169000ECD1C9C0003A8AE0180721F460E185E086
:1016A000E4D1C1C0003A2BE0120721F460E186E0EA
:1016B000DCD1B9C0003B88E0180721F460E283E088
:1016C000D4D1B1C0003B29E0120721F460E284E0EC
:1016D000CCD1A9C0003B8AE0180721F460E285E084
:1016E000C4D1A1C0003B2BE0120721F460E286E0E8
:1016F000BCD199C0003884E0180721F460E483E08D
:10170000B4D191C0003924E0120721F460E484E0F0
:10171000ACD189C0003A84E0180721F460E485E088
:10172000A4D181C0003B24E0120721F460E486E0EC
:101730009CD179C0009312201093132082E09AE08C
:10174000809310209093112089EF99E080930E20D0
:1017500090930F20E6E0F0E284818D8385818E8373
:1017600086818F8380819181A281B38189839A83CD
:10177000AB83BC837801003A88E0180751F460E13C
:1017800083E073D10F2EF0EAEF2EF8E0FF2EF02D5C
:1017900012C020EBE21628E0F20621F460E283E0BA
:1017A00064D112C080EAE81689E0F80621F460E10D
:1017B00084E05BD112C020EBE21629E0F20621F4AE
:1017C00060E284E052D112C080EAE8168AE0F806AE
:1017D00021F460E185E049D112C020EBE2162AE055
:1017E000F20621F460E285E040D111C080EAE816FB
:1017F0008BE0F80621F460E186E037D108C020EBE9
:10180000E2162BE0F20619F460E286E02ED1BE016A
:101810006F5F7F4FC8010E945F0265E271E087EC55
:101820009CE084D522C0009312201093132082E004
:101830009AE0809310209093112089EF99E0809393
:101840000E2090930F20E6E0F0E284818D83858165
:101850008E8386818F8380819181A281B3818983E8
:101860009A83AB83BC83780194CF2796CDBFDEBF2C
:10187000DF91CF911F910F91FF90EF90DF90CF906C
:1018800008950F931F930DEC1BE821E030E0A901B0
:101890009801261B370B480B590BA4E6B0E038D44F
:1018A0002CD329EA36E440E451E452D2F3D21F911A
:1018B0000F910895CF92DF92EF92FF92CF93DF9333
:1018C000FC014115510509F43FC080E090E020E0A3
:1018D000880F991F880F991FDB01A80FB91FCD90A2
:1018E000DD90ED90FC90A281B381AA0FBB1FAA0FDF
:1018F000BB1F86819781A80FB91FCD92DD92ED9213
:10190000FC92139782819381019682839383A081B5
:10191000B1818A179B0711F412821382828193810D
:10192000C481D5818C179D0749F40196A817B90782
:1019300019F08483958302C0148215822F5F822F51
:1019400090E08417950720F2DF91CF91FF90EF9000
:10195000DF90CF900895FC011282138214821582C9
:1019600066837783408351830895FC01828193814C
:10197000448155818417950718F0841B950B0895B1
:1019800020813181820F931F841B950B0895682F4E
:101990008091122090911320E0911020F09111205D
:1019A000199599231CF081E090E008958FEF9FEF47
:1019B0000895CF93DF93FC0120E030E0C62FD0E004
:1019C000DE01022E02C0B595A7950A94E2F7A0FDAC
:1019D000508B2F5F3F4F31962830310589F740FFFC
:1019E0000AC041FF03C0FC01658302C0FC0166839D
:1019F000FC01618302C0FC016283DF91CF910895F5
:101A0000CF93DF931F921F92CDB7DEB78FEF8093F6
:101A100070008093710080937200809373008093B4
:101A2000740080937500809376008FB78A83F89452
:101A30009A81E0E5F0E08081826080839FBF8181B0
:101A400081FFFDCF61E080E490E025D08FB78983EE
:101A5000F8949981E0E5F0E080818E7F80839FBFDC
:101A60000F900F90DF91CF910895CF93DF931F9246
:101A7000CDB7DEB79FB79983F8949981E82FF0E04E
:101A8000E059FF4F60958081682360839FBF0F906E
:101A9000DF91CF9108951BBEFC0128ED24BF608328
:101AA000089508952F923F924F925F926F927F9286
:101AB0008F929F92AF92BF92CF92DF92EF92FF925E
:101AC0000F931F93CF93DF93CDB7DEB7E997CDBFC9
:101AD000DEBF6C014B018E010F5F1F4F7E012EE2B6
:101AE000E20EF11C5801AB014C5F5F4F3A01C4019B
:101AF0000E94EA0489E0F301D50101900D928A95D4
:101B0000E1F759E0A50EB11CEA14FB0481F78980C6
:101B10009A80AB80BC806D817E818F8198856EA715
:101B20007FA788AB99AB6AAB7BAB8CAB9DAB8EAA26
:101B30009FAAA8AEB9AEB501A4014EA45FA468A83F
:101B400079A818019101F10180819181A281B3816D
:101B500088159905AA05BB0534F444805580668034
:101B600077804C015D01481759076A077B075CF4D1
:101B7000F90144815581668177814AAB5BAB6CABDF
:101B80007DABAC01BD01F9E02F0E311CE214F30472
:101B9000C9F64EAB5FAB68AF79AF4EA65FA668AA39
:101BA00079AA80E090E0DC0140E050E0BA01F80161
:101BB0004080518062807380440D551D661D771DE5
:101BC0004480558066807780840D951DA61DB71DC5
:101BD000075F1F4FE016F10651F70EA91FA928ADA8
:101BE00039AD800E911EA21EB31E481959096A090B
:101BF0007B09F60140835183628373834EA55FA501
:101C000068A979A90AA91BA92CA93DA9400F511FB0
:101C1000621F731F841B950BA60BB70B84839583E0
:101C2000A683B78381E08087C601E996CDBFDEBF7A
:101C3000DF91CF911F910F91FF90EF90DF90CF90A8
:101C4000BF90AF909F908F907F906F905F904F90DC
:101C50003F902F900895CF93DF93CDB7DEB7E997EC
:101C6000CDBFDEBF1EDFCCDE22E143E160E476E0E3
:101C700080EA98E0CADB24E140EC58E061E0CE0164
:101C800043960E94260460E476E080EC98E05EDAF9
:101C90008B8947DACE0143960E9445044AE050E022
:101CA0006CE170E284E190E256DEBE016D5E7F4F32
:101CB000CE010A96F7DE6A857B858C859D85E1DD00
:101CC0006B017C0110E01EC0BE016D5E7F4FCE0136
:101CD0000196E8DE69817A818B819C81D2DDDC010D
:101CE000CB018C199D09AE09BF098DA79EA7AFA78F
:101CF000B8AB41E050E0BE01635D7F4F84E190E20C
:101D0000D9DD1F5F84E190E230DE212F30E028171B
:101D10003907D0F2BE016D5E7F4FCE01C196C2DEA3
:101D200069A97AA98BA99CA9ACDDDC01CB018C192E
:101D30009D09AE09BF098DA79EA7AFA7B8AB41E02B
:101D400050E0BE016F5C7F4F84E190E2B3DDE2CFF3
:101D50000CD073C16BD140F062D130F021F45F3F01
:101D600019F044C151119DC147C178D198F399230D
:101D7000C9F35523B1F3951B550BBB27AA2762174F
:101D80007307840738F09F5F5F4F220F331F441F94
:101D9000AA1FA9F333D00E2E3AF0E0E830D09150CC
:101DA0005040E695001CCAF729D0FE2F27D0660FB9
:101DB000771F881FBB1F261737074807AB07B0E8F8
:101DC00009F0BB0B802DBF01FF2793585F4F2AF00E
:101DD0009E3F510568F00AC164C15F3FECF3983E35
:101DE000DCF3869577956795B795F7959F5FC9F76B
:101DF000880F911D9695879597F90895E1E0660FF4
:101E0000771F881FBB1F621773078407BA0720F06C
:101E1000621B730B840BBA0BEE1F88F7E0950895D5
:101E2000BEE304D008F490E80895BFE322273327E7
:101E3000A9011CD158F19F5740F1B91738F1BFE300
:101E4000B91B9927B8503AF4660F771F881F991F5E
:101E5000B395D2F316C0B8504AF0232F342F452F34
:101E6000562F672F782F8827B850BAF7B85F49F0F8
:101E70008695779567955795479537952795BA95A0
:101E8000B9F70EF4BCD088940895889460E070E0AF
:101E9000CB01089504D06894B11103C10895E6D030
:101EA00088F09F5790F0B92F9927B751A0F0D1F043
:101EB000660F771F881F991F1AF0BA95C9F712C0CD
:101EC000B13081F0EDD0B1E00895EAC0672F782FEE
:101ED0008827B85F39F0B93FCCF386957795679539
:101EE000B395D9F73EF490958095709561957F4FA5
:101EF0008F4F9F4F0895E89409C097FB3EF490954B
:101F00008095709561957F4F8F4F9F4F9923A9F0D2
:101F1000F92F96E9BB279395F69587957795679561
:101F2000B795F111F8CFFAF4BB0F11F460FF1BC0A5
:101F30006F5F7F4F8F4F9F4F16C0882311F096E938
:101F400011C0772321F09EE8872F762F05C06623E6
:101F500071F096E8862F70E060E02AF09A95660F9F
:101F6000771F881FDAF7880F9695879597F9089558
:101F7000E894F92F96EBFF2381F01216130614064E
:101F8000440B9395F69587957795679557954040BF
:101F9000FF23B9F71BC099270895882351F498505F
:101FA000D2F7872B762F652F542F432F322F20E027
:101FB000B1F3121613061406440B88233AF09A95CF
:101FC000440F551F661F771F881FCAF755234AF411
:101FD000440F551F11F460FF04C06F5F7F4F8F4F98
:101FE0009F4F880F9695879597F9089597F99F6762
:101FF00080E870E060E008959FEF80EC0895909590
:1020000080957095609550954095309521953F4FFE
:102010004F4F5F4F6F4F7F4F8F4F9F4F089500245B
:102020000A941616170618060906089500240A943D
:1020300012161306140605060895092E0394000CC3
:1020400011F4882352F0BB0F40F4BF2B11F460FF52
:1020500004C06F5F7F4F8F4F9F4F089557FD90587B
:10206000440F551F59F05F3F71F04795880F97FB5C
:10207000991F61F09F3F79F0879508951216130616
:102080001406551FF2CF4695F1DF08C01616170645
:102090001806991FF1CF869571056105089408957A
:1020A000E894BB2766277727CB0197F90895A1E22B
:1020B0001A2EAA1BBB1BFD010DC0AA1FBB1FEE1FC2
:1020C000FF1FA217B307E407F50720F0A21BB30B0D
:1020D000E40BF50B661F771F881F991F1A9469F789
:1020E00060957095809590959B01AC01BD01CF01E5
:1020F0000895A29FB001B39FC001A39F700D811DE1
:102100001124911DB29F700D811D1124911D089500
:10211000F0DFA59F900DB49F900DA49F800D911DA1
:1021200011240895DF93CF931F930F939A9DF02D61
:10213000219FF00D8B9DF00D8A9DE02DF10D039FE9
:10214000F00D029FE00DF11D4E9DE00DF11D5E9D15
:10215000F00D4F9DF00D7F936F93BF92AF925F9301
:102160004F93D501C6DF8B01AC01D701C2DFEB0174
:10217000E80FF91FD6011FD02F913F91D601B9DF8B
:10218000C60FD71FE81FF91FAF91BF9114D02F9131
:102190003F91AFDFC60FD71FE81FF91FD601A9DF98
:1021A000E60FF71F9801BE01CF0111240F911F9177
:1021B000CF91DF9108959DDF460F571FC81FD91F8C
:1021C00008F431960895689401C0E8948F929F9224
:1021D000CF93DF9305D0DF91CF919F908F9008959B
:1021E00088249924F401E401B0E49F93AA279A1566
:1021F0008B049C04ED05FE05CF05D007A10798F4DC
:10220000AD2FDC2FCF2FFE2FE92D982C892E982F64
:10221000872F762F652F542F432F322F2227B85028
:1022200031F7BF9127C01B2EBF91BB27220F331F51
:10223000441F551F661F771F881F991F881C991CF4
:10224000EE1FFF1FCC1FDD1FAA1FBB1F8A149B049C
:10225000EC05FD05CE05DF05A007B10748F08A189B
:102260009B08EC09FD09CE09DF09A00BB10B216029
:102270001A94E1F62EF49401AF01BE01CD01000CD9
:1022800008950F93083090F0982F872F762F652FA1
:10229000542F432F322F22270850F4CF220F331F01
:1022A000441F551F661F771F881F991F0A95B2F795
:1022B0000F91089597FB10F8169400080F930830BB
:1022C00098F00850232F342F452F562F672F782F43
:1022D000892F902DF4CF05949795879577956795DD
:1022E00057954795379527950A95AAF70F91089521
:1022F0002A0D3B1D4C1D5D1D6E1D7F1D801F911FF6
:1023000008952A193B094C095D096E097F09800B64
:10231000910B08950024A7FD00942A17300540056D
:102320005005600570058005900508950F931F9373
:10233000CF93DF93009731F46115710519F480E0B4
:1023400090E039C08B01EC016EE070E081E090E03C
:1023500037D0FC01892B99F380E88383011511059F
:1023600071F00287138781E88383809144209091E4
:102370004520892B21F4E0934420F09345202097B9
:10238000C9F0C087D1878381826083838091462092
:1023900090914720892B71F4E0934620F0934720D9
:1023A0008091482090914920892B21F4E093482086
:1023B000F0934920CF01DF91CF911F910F910895A4
:1023C0000F931F93CF93DF93869F8001879F100DFC
:1023D000969F100D1124C8010DD0EC01009721F03B
:1023E000A80160E070E027D1CE01DF91CF911F916D
:1023F0000F9108950F931F93CF93DF938230910530
:1024000010F482E090E0E0914C20F0914D2020E02B
:1024100030E0A0E0B0E0309719F1408151810281B5
:10242000138148175907C8F08417950769F4109766
:1024300031F012960C93129713961C9327C00093B9
:102440004C2010934D2022C02115310519F0421760
:10245000530718F49A01BD01EF01DF01F801DBCF4A
:1024600021153105F9F0281B390B2430310580F492
:102470008A819B816115710521F0FB018283938321
:1024800004C080934C2090934D20FE01329644C0AE
:10249000FE01E20FF31F81939193225031092883AB
:1024A00039833AC020914A2030914B20232B41F4AC
:1024B000209102203091032020934A2030934B201A
:1024C00020910020309101202115310541F42DB7D4
:1024D0003EB74091042050910520241B350BE0911C
:1024E0004A20F0914B20E217F307A0F42E1B3F0B7C
:1024F0002817390778F0AC014E5F5F4F2417350776
:1025000048F04E0F5F1F40934A2050934B20819319
:10251000919302C0E0E0F0E0CF01DF91CF911F91F5
:102520000F910895CF93DF93009709F481C0FC01C8
:10253000329712821382A0914C20B0914D201097B7
:1025400081F420813181820F931F20914A203091A4
:102550004B202817390751F5E0934A20F0934B2080
:1025600067C0ED0120E030E0CE17DF0740F44A817C
:102570005B819E0141155105F1F0EA01F5CFC2835F
:10258000D38340815181840F951FC817D90759F40F
:1025900088819981840F951F0296808391838A8117
:1025A0009B81828393832115310529F4E0934C208C
:1025B000F0934D203DC0E901EA83FB834991599195
:1025C000C40FD51FEC17FD0761F480819181840F42
:1025D000951F0296E90188839983828193818A837A
:1025E0009B83E0E0F0E012968D919C911397009709
:1025F00019F0FD01DC01F7CF8D919C9111979D01A0
:102600002E5F3F4F820F931F20914A2030914B2025
:102610002817390769F4309729F410924C2010924A
:102620004D2002C012821382A0934A20B0934B2007
:10263000DF91CF910895DC0101C06D93415050406E
:08264000E0F70895F894FFCFC4
:0E26480000004E20200000C20100030001002F
:00000001FF
